:020000040800F2
:1000000000C00020F93200081D3200082532000827
:100010002D320008353200083D3200080000000093
:100020000000000000000000000000004532000851
:1000300051320008000000005D32000869320008FB
:1000400041330008413300084133000841330008C0
:1000500041330008413300084133000841330008B0
:1000600041330008413300084133000841330008A0
:100070004133000841330008413300084133000890
:100080004133000841330008413300084133000880
:100090004133000841330008413300084133000870
:1000A0004133000841330008413300084133000860
:1000B0004133000841330008413300084133000850
:1000C0004133000841330008413300084133000840
:1000D00041330008413300084133000881320008F1
:1000E0004133000841330008413300084133000820
:1000F0004133000841330008413300084133000810
:1001000041330008413300084133000841330008FF
:1001100041330008413300084133000841330008EF
:1001200041330008413300084133000841330008DF
:1001300000000000000000000000000000000000BF
:1001400000000000000000000000000000000000AF
:10015000000000000000000000000000000000009F
:10016000000000000000000000000000000000008F
:10017000000000000000000000000000000000007F
:10018000000000000000000000000000000000006F
:10019000000000000000000000000000000000005F
:1001A000000000000000000000000000000000004F
:1001B000000000000000000000000000000000003F
:1001C000000000000000000000000000000000002F
:1001D000000000000000000000000000000000001F
:0401E0005FF8E0F1F3
:1001E40010B5054C237833B9044B13B10448AFF36D
:1001F40000800123237010BD1000002000000000C7
:100204008040000808B5034B1BB103490348AFF312
:10021400008008BD00000000140000208040000899
:1002240080B400AF00BFBD4680BC704780B584B0C9
:1002340000AF78600023FB607B68002B01D10123B1
:100244007AE07B685B7CDBB2002B05D17B68002203
:100254001A74786802F03EFF7B6802225A74786848
:1002640000F0BEF90346002B04D07B6804225A74C4
:10027400012361E0786800F077FA0346002B04D08C
:100284007B6804225A74012356E07B681B685A6811
:100294007B681B6822F007025A607B689B68002B0E
:1002A40005D0274B1B6B264A23F001031363244B11
:1002B400DB6A23F460727B689B6821491343CB6239
:1002C4007B685B68B3F1FF3F03D07B685B68FB60CE
:1002D4000EE0012001F0B0F8F860FB68002B04D1B7
:1002E4007B6804225A74012326E0FB68013BFB600F
:1002F400FB681A0C7B681B6802F00F029A607B682B
:100304001B68FA6892B2DA60786800F055FA03461E
:10031400002B04D07B6804225A7401230CE07B6810
:100324000022DA737B6801225A737B6801229A7374
:100334007B6801225A74002318461037BD4680BDDD
:10034400006C004090B587B000AFF860B9607A6087
:1003540000237B6100233B61FB68002B02D0BB6858
:10036400002B01D1012380E0FB681B7C012B01D110
:1003740002237AE0FB6801221A74FB6802225A7491
:100384007B68002B13D1BB681B781A464FF461635A
:1003940003FB02F2BB685B7819460B461B015B1A30
:1003A4009B001344BA68927813447B611EE0BB68D7
:1003B4001B78184600F028FA03461A464FF4616386
:1003C40003FB02F4BB685B78184600F01DFA034691
:1003D4001A4613461B019B1A9B001C44BB689B785E
:1003E400184600F011FA034623447B617969F868E2
:1003F40000F053F90346002B07D0FB6804225A741B
:10040400FB6800221A7401232FE0FB681B685A68FA
:10041400FB681B6822F005025A60F86800F064F972
:1004240038613B69B3F1FF3F18D03A697B699A425E
:1004340014D23B6903F5A83303F5C0733B613969F2
:10044400F86800F06AF90346002B07D0FB68042221
:100454005A74FB6800221A74012306E0FB68012227
:100464005A74FB6800221A74002318461C37BD46D0
:1004740090BD000080B588B000AFF860B9607A60C4
:100484000023FB610023BB6100237B61FB68002B1D
:1004940002D0BB68002B01D1012397E0FB681B7CD1
:1004A400012B01D1022391E0FB6801221A74FB683D
:1004B40002225A747B68002B0CD1BB68DA78FB6883
:1004C400DA73BB685A78FB685A73BB689A78FB681E
:1004D4009A731AE0BB68DB78184600F095F9034676
:1004E4001A46FB68DA73BB685B78184600F08CF92F
:1004F40003461A46FB685A73BB689B78184600F09B
:1005040083F903461A46FB689A73FB68DB7B18463B
:10051400FB68597BFB689B7B1A4600F093F9034602
:100524001A46FB681A73FB681A7BBB681A70F86872
:1005340000F083F8F861FB69264AA2FB0323DB0A77
:100544007B617B69182B3AD97B69234AA2FB03237D
:100554001B09224A02FB03F3FA69D31AFB61F96906
:10056400F86800F09AF80346002B07D0FB680422D1
:100574005A74FB6800221A74012327E0F86800F01B
:10058400B3F8B861BB69B3F1FF3F18D0BA69FB692E
:100594009A4214D2BB6903F5A83303F5C073BB6157
:1005A400B969F86800F0B9F80346002B07D0FB6876
:1005B40004225A74FB6800221A74012306E0FB68C3
:1005C40001225A74FB6800221A740023184620374B
:1005D400BD4680BDC5B3A291ABAAAAAA80510100B1
:1005E40080B584B000AF78600023FB607B68002B8B
:1005F40001D101231DE07B681B685A687B681B6876
:1006040022F008025A6000F023FAF86009E000F0D2
:100614001FFA0246FB68D31AB3F57A7F01D9032384
:1006240007E07B681B685B6803F00803002BEED0CF
:10063400002318461037BD4680BD80B487B000AF94
:10064400786000237B8200233B820023FB8100230C
:100654007B617B681B689B697B827B681B68DB69A9
:10066400FB817B681B689B693B827A8A3B8A9A423E
:1006740008D03B8A1A047B681B68DB699BB213436E
:100684007B6104E07B8A1A04FB8913437B617B69E9
:1006940018461C37BD4680BC704780B584B000AF97
:1006A400786039600023FB73786800F05DF80346D6
:1006B400002B02D00123FB7311E07B681B683A68AE
:1006C400120C9A617B681B683A6892B2DA617868A6
:1006D40000F072F80346002B01D00123FB73FB7B6F
:1006E40018461037BD4680BD80B485B000AF786031
:1006F4000023FB810023BB817B681B681B6AFB8191
:100704007B681B685B6ABB81FB891A04BB89134342
:1007140018461437BD4680BC704780B584B000AF1E
:10072400786039600023FB73786800F01DF8034695
:10073400002B02D00123FB7311E07B681B683A682D
:10074400120C1A627B681B683A6892B25A62786823
:1007540000F032F80346002B01D00123FB73FB7B2E
:1007640018461037BD4680BD80B584B000AF7860B0
:100774000023FB6000F06CF9F86009E000F068F910
:100784000246FB68D31AB3F57A7F01D903230FE03D
:100794007B681B685B6803F02003002BEED07B684A
:1007A4001B685A687B681B6842F010025A60002379
:1007B40018461037BD4680BD80B584B000AF786060
:1007C4000023FB607B681B685A687B681B6822F007
:1007D40010025A6000F03CF9F86009E000F038F9C2
:1007E4000246FB68D31AB3F57A7F01D9032307E0E5
:1007F4007B681B685B6803F02003002BEED00023AA
:1008040018461037BD4680BD80B485B000AF03469E
:10081400FB710023FB60FB791B09DBB21A4613460C
:100824009B0013445B00FB60FB7903F00F03DAB217
:10083400FB68DBB21344DBB218461437BD4680BCF8
:100844007047000080B485B000AF78600B46FB7041
:100854001346BB700023BB600023FB607B6803F579
:10086400FA63BB60FB78022B2DD8FA7813465B0041
:100874001344DB009B1A2C4AA2FB03235A08BB78BF
:100884001A44BB681A44BB68013B9B081A44BB6802
:10089400013B2649A1FB03135B09D21ABB68013B48
:1008A4002249A1FB0313DB0913441A1D204BA3FBAC
:1008B4000213D11A49080B4499080B46DB005B1A52
:1008C400D31AFB6029E0FA7813465B001344DB007B
:1008D4009B1A154AA2FB03235A08BB781A44BB6827
:1008E4001A44BB689B081A44BB681049A1FB031354
:1008F4005B09D21ABB680D49A1FB0313DB0913443E
:100904009A1C0B4BA3FB0213D11A49080B449908F8
:100914000B46DB005B1AD31AFB60FB68DBB218469C
:100924001437BD4680BC7047398EE3381F85EB51C0
:100934002549922480B487B000AFF860B9607A602A
:1009440000237B61074B7B61BB689B007A6913447E
:100954007B617B697A6892B21A6000BF1C37BD461E
:1009640080BC7047006C004080B485B000AF7860F4
:1009740039600023FB600023BB60084BFB603B68CD
:100984009B00FA681344FB60FB681B689BB2BB6066
:10099400BB6818461437BD4680BC7047006C0040E5
:1009A40080B500AF084B1B68074A43F0100313607F
:1009B400032001F0D5F90F2000F008F802F068FCDC
:1009C4000023184680BD00BF0020024080B582B0DD
:1009D40000AF7860124B1A68124B1B7819464FF41B
:1009E4007A73B3FBF1F3B2FBF3F3184601F0EDF9BC
:1009F4000346002B01D001230EE07B680F2B0AD89D
:100A0400002279684FF0FF3001F0B5F9064A7B689F
:100A14001360002300E0012318460837BD4680BD5B
:100A240000000020080000200400002080B400AF73
:100A3400054B1B781A46054B1B681344034A136085
:100A440000BFBD4680BC7047080000202C00002079
:100A540080B400AF024B1B681846BD4680BC70478B
:100A64002C00002080B584B000AF7860FFF7F0FF61
:100A7400B8607B68FB60FB68B3F1FF3F05D00A4BAD
:100A84001B781A46FB681344FB6000BFFFF7E0FFC6
:100A94000246BB68D31AFA689A42F7D800BF00BF6F
:100AA4001037BD4680BD00BF0800002080B586B069
:100AB40000AF78607B68002B01D1012372E27B6870
:100AC4001B6803F00103002B00F08780924B5B68E6
:100AD40003F00C03042B0CD08F4B5B6803F00C0366
:100AE400082B12D18C4B5B6803F48033B3F5803F41
:100AF4000BD1894B1B6803F40033002B6CD07B684B
:100B04005B68002B68D101234CE27B685B68B3F51A
:100B1400803F06D1804B1B687F4A43F480331360C7
:100B24002EE07B685B68002B0CD17B4B1B687A4AF8
:100B340023F480331360784B1B68774A23F48023B3
:100B440013601DE07B685B68B3F5A02F0CD1724B7A
:100B54001B68714A43F4802313606F4B1B686E4A11
:100B640043F4803313600BE06B4B1B686A4A23F435
:100B740080331360684B1B68674A23F48023136037
:100B84007B685B68002B13D0FFF762FF386108E0D5
:100B9400FFF75EFF02463B69D31A642B01D9032396
:100BA40000E25D4B1B6803F40033002BF0D014E02B
:100BB400FFF74EFF386108E0FFF74AFF02463B6942
:100BC400D31A642B01D90323ECE1534B1B6803F4C0
:100BD4000033002BF0D100E000BF7B681B6803F0FA
:100BE4000203002B63D04C4B5B6803F00C03002B17
:100BF4000BD0494B5B6803F00C03082B1CD1464B0C
:100C04005B6803F48033002B16D1434B1B6803F05D
:100C14000203002B05D07B681B69012B01D0012343
:100C2400C0E13D4B1B6823F0F8027B685B69DB0085
:100C3400394913430B603AE07B681B69002B20D0D1
:100C4400364B01221A60FFF703FF386108E0FFF713
:100C5400FFFE02463B69D31A022B01D90323A1E10B
:100C64002D4B1B6803F00203002BF0D02A4B1B68AA
:100C740023F0F8027B685B69DB00274913430B60B0
:100C840015E0264B00221A60FFF7E2FE386108E007
:100C9400FFF7DEFE02463B69D31A022B01D9032378
:100CA40080E11D4B1B6803F00203002BF0D17B682D
:100CB4001B6803F00803002B3AD07B689B69002B68
:100CC40019D0174B01221A60FFF7C2FE386108E001
:100CD400FFF7BEFE02463B69D31A022B01D9032358
:100CE40060E10D4B5B6A03F00203002BF0D001209E
:100CF40000F0CEFA1CE00A4B00221A60FFF7A8FEAF
:100D040038610FE0FFF7A4FE02463B69D31A022BB9
:100D140008D9032346E100BF00100240000042420C
:100D240080044242924B5B6A03F00203002BE9D138
:100D34007B681B6803F00403002B00F0A6800023EB
:100D4400FB758B4BDB6903F08053002B0DD1884B73
:100D5400DB69874A43F08053D361854BDB6903F039
:100D64008053BB60BB680123FB75824B1B6803F493
:100D74008073002B18D17F4B1B687E4A43F4807329
:100D84001360FFF765FE386108E0FFF761FE024675
:100D94003B69D31A642B01D9032303E1754B1B6808
:100DA40003F48073002BF0D07B68DB68012B06D141
:100DB4006F4B1B6A6E4A43F0010313622DE07B689C
:100DC400DB68002B0CD16A4B1B6A694A23F00103D0
:100DD4001362674B1B6A664A23F0040313621CE028
:100DE4007B68DB68052B0CD1614B1B6A604A43F0BE
:100DF400040313625E4B1B6A5D4A43F001031362F2
:100E04000BE05B4B1B6A5A4A23F001031362584BF5
:100E14001B6A574A23F0040313627B68DB68002BC8
:100E240015D0FFF715FE38610AE0FFF711FE024600
:100E34003B69D31A41F28832934201D90323B1E0CA
:100E44004B4B1B6A03F00203002BEED014E0FFF7B8
:100E5400FFFD38610AE0FFF7FBFD02463B69D31A48
:100E640041F28832934201D903239BE0404B1B6A31
:100E740003F00203002BEED1FB7D012B05D13C4B8B
:100E8400DB693B4A23F08053D3617B68DB69002B29
:100E940000F08780364B5B6803F00C03082B61D0AD
:100EA4007B68DB69022B46D1334B00221A60FFF7C3
:100EB400CFFD386108E0FFF7CBFD02463B69D31A4A
:100EC400022B01D903236DE0294B1B6803F0007347
:100ED400002BF0D17B681B6AB3F5803F08D1244B0B
:100EE4005B6823F400327B689B68214913434B60A1
:100EF4001F4B5B6823F474127B68196A7B685B6A16
:100F04000B431B4913434B601B4B01221A60FFF731
:100F14009FFD386108E0FFF79BFD02463B69D31A49
:100F2400022B01D903233DE0114B1B6803F000732E
:100F3400002BF0D035E0104B00221A60FFF788FD3B
:100F4400386108E0FFF784FD02463B69D31A022B9F
:100F540001D9032326E0064B1B6803F00073002B22
:100F6400F0D11EE07B68DB69012B07D1012319E076
:100F74000010024000700040600042420B4B5B686E
:100F8400FB60FB6803F480327B681B6A9A4206D1DB
:100F9400FB6803F470127B685B6A9A4201D00123F8
:100FA40000E0002318461837BD4680BD00100240FB
:100FB40080B584B000AF786039607B68002B01D1C4
:100FC4000123D0E06A4B1B6803F007033A689A4296
:100FD40010D9674B1B6823F0070265493B6813432C
:100FE4000B60634B1B6803F007033A689A4201D015
:100FF4000123B8E07B681B6803F00203002B20D0B8
:101004007B681B6803F00403002B05D0594B5B6815
:10101400584A43F4E06353607B681B6803F0080399
:10102400002B05D0534B5B68524A43F46053536022
:10103400504B5B6823F0F0027B689B684D49134377
:101044004B607B681B6803F00103002B40D07B6876
:101054005B68012B07D1474B1B6803F40033002B5B
:1010640015D101237FE07B685B68022B07D1414BDC
:101074001B6803F00073002B09D1012373E03D4B7F
:101084001B6803F00203002B01D101236BE0394BF1
:101094005B6823F003027B685B68364913434B604B
:1010A400FFF7D6FCF8600AE0FFF7D2FC0246FB68C3
:1010B400D31A41F28832934201D9032353E02D4BD2
:1010C4005B6803F00C027B685B689B009A42EBD17F
:1010D400274B1B6803F007033A689A4210D2244B4B
:1010E4001B6823F0070222493B6813430B60204B23
:1010F4001B6803F007033A689A4201D0012332E0E7
:101104007B681B6803F00403002B08D0194B5B6851
:1011140023F4E0627B68DB68164913434B607B6809
:101124001B6803F00803002B09D0124B5B6823F4FF
:1011340060527B681B69DB000E4913434B6000F06F
:1011440021F802460B4B5B681B0903F00F030A49A5
:10115400CB5C22FA03F3094A1360094B1B68184657
:10116400FFF734FC002318461037BD4680BD00BF8E
:1011740000200240001002409840000800000020B7
:101184000400002080B487B000AF0023FB6000237C
:10119400BB6000237B6100237B6000233B611E4B0B
:1011A4005B68FB60FB6803F00C03042B02D0082B84
:1011B40003D027E0194B3B6127E0FB689B0C03F04D
:1011C4000F03174AD35C7B60FB6803F48033002B66
:1011D40010D0114B5B685B0C03F00103114AD35C24
:1011E400BB607B680D4A03FB02F2BB68B2FBF3F3FE
:1011F4007B6104E07B680C4A02FB03F37B617B693F
:101204003B6102E0054B3B6100BF3B6918461C375C
:10121400BD4680BC704700BF0010024000127A0037
:10122400B0400008C040000800093D0080B400AF91
:10123400024B1B681846BD4680BC70470000002066
:1012440080B500AFFFF7F2FF0246054B5B681B0A4F
:1012540003F007030349CB5C22FA03F3184680BD6D
:1012640000100240A840000880B500AFFFF7DEFF81
:101274000246054B5B68DB0A03F007030349CB5CBA
:1012840022FA03F3184680BD00100240A84000086B
:1012940080B485B000AF78600A4B1B680A4AA2FB91
:1012A40003235B0A7A6802FB03F3FB6000BFFB685D
:1012B4005A1EFA60002BF9D100BF00BF1437BD4697
:1012C40080BC704700000020D34D621080B586B00A
:1012D40000AF786000233B610023FB607B681B68E0
:1012E40003F00103002B7DD00023FB754F4BDB691A
:1012F40003F08053002B0DD14C4BDB694B4A43F078
:101304008053D361494BDB6903F08053BB60BB68F6
:101314000123FB75464B1B6803F48073002B18D123
:10132400434B1B68424A43F480731360FFF790FBFE
:10133400386108E0FFF78CFB02463B69D31A642B43
:1013440001D903236DE03A4B1B6803F48073002B2F
:10135400F0D0364B1B6A03F44073FB60FB68002B30
:101364002ED07B685B6803F44073FA689A4227D0F6
:101374002E4B1B6A23F44073FB602E4B01221A6030
:101384002C4B00221A60294AFB681362FB6803F0A5
:101394000103002B14D0FFF75BFB38610AE0FFF771
:1013A40057FB02463B69D31A41F28832934201D972
:1013B400032336E01D4B1B6A03F00203002BEED01F
:1013C4001A4B1B6A23F440727B685B68174913430A
:1013D4000B62FB7D012B05D1144BDB69134A23F00F
:1013E4008053D3617B681B6803F00203002B08D091
:1013F4000E4B5B6823F440427B689B680B491343A4
:101404004B607B681B6803F01003002B08D0074B6C
:101414005B6823F480027B685B69044913434B6077
:10142400002318461837BD4680BD00BF0010024097
:10143400007000404004424280B588B000AF78603C
:1014440000237B610023FB6100233B610023FB60DD
:101454000023BB617B68013B0F2B00F2AF8001A22C
:1014640052F823F03F150008A5150008C11500081F
:101474002F150008C1150008C1150008C115000882
:1014840037150008C1150008C1150008C11500086A
:10149400C1150008C1150008C1150008C1150008D0
:1014A400A91400084A4B5B68FB60494B1B6803F0B6
:1014B4008073002B00F08480FB689B0C03F00F0307
:1014C400444AD35C3B61FB6803F48033002B15D0A2
:1014D4003F4B5B685B0C03F001033F4AD35C7B61C9
:1014E400FB6803F48033002B0DD03C4A7B69B2FBCC
:1014F400F3F23B6902FB03F3FB6104E03B69384A06
:1015040002FB03F3FB61324B5B6803F48003B3F526
:10151400800F02D1FB69BB6152E0FB695B00314A79
:10152400A2FB03235B08BB614AE0FFF72BFEB86113
:1015340049E0FFF727FEB86145E0254B1B6AFB60D5
:10154400FB6803F44073B3F5807F08D1FB6803F0B4
:101554000203002B03D04FF40043BB611FE0FB6880
:1015640003F44073B3F5007F09D1194B5B6A03F0B0
:101574000203002B03D049F64043BB610FE0FB6834
:1015840003F44073B3F5407F1CD1114B1B6803F483
:101594000033002B16D04FF22443BB6112E011E05C
:1015A400FFF762FE02460A4B5B689B0B03F00303E2
:1015B40001335B00B2FBF3F3BB6104E000BF02E064
:1015C40000BF00E000BFBB6918462037BD4680BDA0
:1015D40000100240C4400008D440000800127A0001
:1015E40000093D00ABAAAAAA80B48BB000AF786012
:1015F400396000237B6200233B6279E101227B6A2C
:1016040002FA03F3FB613B681B68FA691340BB6190
:10161400BA69FB699A4240F068813B685B68964A04
:1016240093425ED0944A934275D8944A934258D0D8
:10163400924A93426FD8924A934252D0904A93422C
:1016440069D8904A93424CD08E4A934263D88E4ACA
:10165400934246D08C4A93425DD8122B2AD8122B3F
:1016640059D801A252F823F0E7160008C116000861
:10167400D3160008151700081B1700081B170008CD
:101684001B1700081B1700081B1700081B1700086E
:101694001B1700081B1700081B1700081B1700085E
:1016A4001B1700081B1700081B170008C9160008A1
:1016B400DD160008754A934213D02CE03B68DB68C2
:1016C4003B6229E03B68DB6804333B6224E03B680F
:1016D400DB6808333B621FE03B68DB680C333B622A
:1016E4001AE03B689B68002B02D104233B6213E0A1
:1016F4003B689B68012B05D108233B627B68FA6930
:101704001A6109E008233B627B68FA695A6103E0C5
:1017140000233B6200E000BFBB69FF2B01D87B685C
:1017240001E07B6804337B61BB69FF2B02D87B6AD1
:101734009B0002E07B6A083B9B003B617B691A6863
:101744000F213B6901FA03F3DB431A40396A3B6911
:1017540001FA03F31A437B691A603B685B6803F080
:101764008053002B00F0C180494B9B69484A43F0E9
:1017740001039361464B9B6903F00103BB60BB68A3
:10178400444A7B6A9B08023352F82330FB607B6A2D
:1017940003F003039B000F2202FA03F3DB43FA680E
:1017A4001340FB607B683C4A93421FD07B683B4AF2
:1017B400934219D07B683A4A934213D07B68394AE2
:1017C40093420DD07B68384A934207D07B68374AEE
:1017D400934201D105230AE0062308E0042306E02E
:1017E400032304E0022302E0012300E000237A6AD9
:1017F40002F0030292009340FA681343FB60254908
:101804007B6A9B080233FA6841F823203B685B68D3
:1018140003F48013002B06D0254B9A682449BB6936
:1018240013438B6006E0224B9A68BB69DB43204973
:1018340013408B603B685B6803F40013002B06D0F5
:101844001B4BDA681A49BB691343CB6006E0184B9B
:10185400DA68BB69DB4316491340CB603B685B68BD
:1018640003F40033002B25D0114B5A681049BB698F
:1018740013434B6025E000BF00003210000031101C
:1018840000002210000021100000121000001110AE
:10189400001002400000014000080140000C01401B
:1018A400001001400014014000180140001C0140D8
:1018B40000040140154B5A68BB69DB4313491340CC
:1018C4004B603B685B6803F48033002B06D00F4BFE
:1018D4001A680E49BB6913430B6006E00B4B1A6888
:1018E400BB69DB43094913400B607B6A01337B62AC
:1018F4003B681A687B6A22FA03F3002B7FF47EAEFE
:1019040000BF00BF2C37BD4680BC704700040140B7
:1019140080B483B000AF78600B467B8013467B7045
:101924007B78002B03D07A887B681A6103E07B887C
:101934001A047B681A6100BF0C37BD4680BC70472F
:1019440080B485B000AF78600023FB737B6893F8A4
:101954002130DBB2022B08D07B6804229A637B68B7
:10196400002283F82020012320E07B681B681A688A
:101974007B681B6822F00E021A607B681B681A6879
:101984007B681B6822F001021A607B681A6C7B6812
:10199400DB6B012101FA02F25A607B68012283F8B1
:1019A40021207B68002283F82020FB7B1846143713
:1019B400BD4680BC7047000080B584B000AF78603D
:1019C4000023FB737B6893F82130DBB2022B05D034
:1019D4007B6804229A630123FB73D6E07B681B684F
:1019E4001A687B681B6822F00E021A607B681B6809
:1019F4001A687B681B6822F001021A607B681B6806
:101A04001A46644B9A4258D97B681B68624A9342CF
:101A14004FD07B681B68614A934248D07B681B683F
:101A24005F4A934240D07B681B685E4A934238D039
:101A34007B681B685C4A934230D07B681B685B4AB6
:101A4400934228D07B681B68524A934220D07B681B
:101A54001B68574A934219D07B681B68554A9342C6
:101A640012D07B681B68544A93420AD07B681B6877
:101A7400524A934202D14FF480531BE04FF4803317
:101A840018E04FF4807315E0102313E0012311E0F4
:101A94004FF080730EE04FF480130BE04FF480336B
:101AA40008E04FF4805305E04FF4807302E0102304
:101AB40000E00123424A536057E07B681B68364AC2
:101AC40093424FD07B681B68344A934248D07B686A
:101AD4001B68334A934240D07B681B68314A934267
:101AE40038D07B681B68304A934230D07B681B68CF
:101AF4002E4A934228D07B681B68264A934220D002
:101B04007B681B682A4A934219D07B681B68294A60
:101B1400934212D07B681B68274A93420AD07B68A1
:101B24001B68264A934202D14FF480531BE04FF4C2
:101B3400803318E04FF4807315E0102313E0012381
:101B440011E04FF080730EE04FF480130BE04FF47C
:101B5400803308E04FF4805305E04FF4807302E0D3
:101B6400102300E00123174A53607B68012283F8A5
:101B740021207B68002283F820207B685B6B002B8C
:101B840003D07B685B6B78689847FB7B18461037FB
:101B9400BD4680BD80000240080002401C00024097
:101BA4003000024044000240580002406C000240F1
:101BB400080402401C040240300402404404024071
:101BC400000402400000024080B485B000AF786099
:101BD4007B6803F00703FB600C4BDB68BB60BA68EF
:101BE4004FF6FF031340BB60FB681A02BB68134344
:101BF40043F0BF6343F40033BB60044ABB68D36063
:101C040000BF1437BD4680BC704700BF00ED00E044
:101C140080B400AF044BDB681B0A03F007031846CB
:101C2400BD4680BC704700BF00ED00E080B483B0C7
:101C340000AF0346FB7197F90730002B0BDBFB79F0
:101C440003F01F02064997F907305B09012000FAE7
:101C540002F241F8232000BF0C37BD4680BC704718
:101C640000E100E080B483B000AF03463960FB714B
:101C740097F90730002B0ADB3B68DAB20C4997F975
:101C840007301201D2B20B4483F800230AE03B6808
:101C9400DAB20849FB7903F00F03043B1201D2B214
:101CA4000B441A7600BF0C37BD4680BC704700BF9A
:101CB40000E100E000ED00E080B489B000AFF8601E
:101CC400B9607A60FB6803F00703FB61FB69C3F149
:101CD4000703042B28BF0423BB61FB690433062BD1
:101CE40002D9FB69033B00E000237B614FF0FF3224
:101CF400BB6902FA03F3DA43BB681A407B699A4072
:101D04004FF0FF317B6901FA03F3D9437B680B4041
:101D1400134318462437BD4680BC704780B582B053
:101D240000AF78607B68013BB3F1807F01D301236E
:101D34000FE00A4A7B68013B53600F214FF0FF30EC
:101D4400FFF790FF054B00229A60044B07221A60AC
:101D5400002318460837BD4680BD00BF10E000E0F0
:101D640080B582B000AF78607868FFF72DFF00BFC0
:101D74000837BD4680BD80B586B000AF0346B96064
:101D84007A60FB7300237B61FFF742FF78617A6816
:101D9400B9687869FFF790FF024697F90F3011464A
:101DA4001846FFF75FFF00BF1837BD4680BD80B5FA
:101DB40082B000AF0346FB7197F907301846FFF76E
:101DC40035FF00BF0837BD4680BD80B582B000AF87
:101DD40078607868FFF7A2FF034618460837BD46C7
:101DE40080BD000080B400AF034B01221A6000BF25
:101DF400BD4680BC704700BF20000E42F0B587B0DE
:101E040000AFF860B960C7E900230123FB75002324
:101E1400BB7500237B752F4B1B7E012B01D1022345
:101E240054E02C4B01221A764CF2503000F072F838
:101E34000346FB75FB7D002B44D1FB68012B02D1CB
:101E440001237B7507E0FB68022B02D102237B751B
:101E540001E004237B750023BB752DE0BB7D5A0094
:101E6400BB6802EB030CBB7D1901D7E90023C1F168
:101E74002006A1F1200022FA01F403FA06F6344305
:101E840023FA00F0044323FA01F5A3B2194660468D
:101E940000F024F84CF2503000F03CF80346FB7597
:101EA4000D4B1B690C4A23F001031361FB7D002BCE
:101EB40007D1BB7D0133BB75BA7D7B7D9A42CDD3FF
:101EC40000E000BF034B00221A76FB7D18461C3746
:101ED400BD46F0BD300000200020024080B483B035
:101EE40000AF78600B467B80084B0022DA61084B18
:101EF4001B69074A43F0010313617B687A881A80DF
:101F040000BF0C37BD4680BC704700BF30000020C6
:101F14000020024080B584B000AF7860FEF798FDE1
:101F2400F86010E07B68B3F1FF3F0CD07B68002BB6
:101F340007D0FEF78DFD0246FB68D31A7A689A42F1
:101F440001D2032325E0154BDB6803F00103002BCA
:101F5400E8D1124BDB6803F02003002B02D00F4BB7
:101F64002022DA600D4BDB6803F01003002B0BD149
:101F74000A4BDB6903F00103002B05D1074BDB6837
:101F840003F00403002B03D000F00AF8012300E05F
:101F9400002318461037BD4680BD00BF0020024014
:101FA40080B483B000AF00237B60234BDB6803F075
:101FB4001003002B09D0214BDB6943F002031F4AB5
:101FC400D3617B6843F010037B601B4BDB6803F039
:101FD4000403002B09D0194BDB6943F00103174AB2
:101FE400D3617B6843F004037B60134BDB6903F02C
:101FF4000103002B0BD0114BDB6943F004030F4AA0
:10200400D3610D4BDB690C4A23F00103D3617B6878
:1020140040F20112934206D1074BDB69064A23F0D2
:102024000103D36102E0044A7B68D36000BF0C372C
:10203400BD4680BC704700BF002002403000002035
:1020440080B584B000AF786039600123FB7300234E
:10205400BB602F4B1B7E012B01D1022353E02C4B81
:1020640001221A767B681B68022B16D14CF2503081
:10207400FFF750FF0346002B41D1012000F04CF83C
:102084004CF25030FFF746FF0346FB73214B1B69AC
:10209400204A23F00403136131E04CF25030FFF77F
:1020A40039FF0346002B2AD13B684FF0FF321A60F8
:1020B4007B689B68BB6019E0B86800F049F84CF293
:1020C4005030FFF727FF0346FB73124B1B69114A7D
:1020D40023F002031361FB7B002B03D03B68BA6837
:1020E4001A600CE0BB6803F50063BB607B68DB68C7
:1020F400DA027B689B681344BA689A42DCD3044BC7
:1021040000221A76FB7B18461037BD4680BD00BFFF
:10211400300000200020024080B483B000AF78601B
:10212400094B0022DA61094B1B69084A43F0040396
:102134001361064B1B69054A43F04003136100BF5A
:102144000C37BD4680BC70473000002000200240A0
:1021540080B483B000AF78600B4B0022DA610B4B84
:102164001B690A4A43F002031361084A7B685361FE
:10217400064B1B69054A43F04003136100BF0C374B
:10218400BD4680BC704700BF3000002000200240E4
:1021940080B582B000AF78607B68002B01D1012349
:1021A40042E07B6893F84130DBB2002B06D17B68B8
:1021B400002283F84020786800F0DAFF7B6824224C
:1021C40083F841207B681B68DA687B681B6822F40B
:1021D4000052DA60786800F0B7FD7B681B681A6902
:1021E4007B681B6822F490421A617B681B685A69F9
:1021F4007B681B6822F02A025A617B681B68DA68D4
:102204007B681B6842F40052DA607B6800225A64DF
:102214007B68202283F841207B68202283F84220B7
:102224007B6800225A63002318460837BD4680BDE8
:1022340080B58AB002AFF860B9603B601346FB809A
:1022440000237B61FB6893F84130DBB2202B75D10E
:10225400BB68002B02D0FB88002B01D101236EE068
:10226400FB6800225A64FB68212283F84120FEF7B0
:10227400EFFB7861FB68FA889A84FB68FA88DA8451
:10228400FB689B68B3F5805F08D1FB681B69002B72
:1022940004D10023FB61BB68BB6103E0BB68FB6145
:1022A4000023BB612EE03B6800937B690022802100
:1022B400F86800F01CFB0346002B05D0FB682022C5
:1022C40083F8412003233AE0FB69002B0BD1BB695F
:1022D4001B881A46FB681B68C2F308025A60BB6974
:1022E4000233BB6107E0FB691A78FB681B685A601C
:1022F400FB690133FB61FB68DB8C9BB2013B9AB247
:10230400FB68DA84FB68DB8C9BB2002BCBD13B6887
:1023140000937B6900224021F86800F0E8FA034644
:10232400002B05D0FB68202283F84120032306E01C
:10233400FB68202283F84120002300E00223184692
:102344002037BD4680BD80B584B000AFF860B96069
:102354001346FB80FB6893F84230DBB2202B12D18A
:10236400BB68002B02D0FB88002B01D101230BE0BA
:10237400FB6800221A63FB881A46B968F86800F003
:102384000FFB034600E0022318461037BD4680BD0C
:1023940080B5BAB000AF78607B681B681B68C7F86B
:1023A400E4307B681B68DB68C7F8E0307B681B6837
:1023B4005B69C7F8DC300023C7F8D8300023C7F8BE
:1023C400D430D7F8E43003F00F03C7F8D830D7F887
:1023D400D830002B0FD1D7F8E43003F02003002BC2
:1023E40009D0D7F8E03003F02003002B03D078683D
:1023F40000F0ECFB5BE2D7F8D830002B00F0DE8075
:10240400D7F8DC3003F00103002B06D1D7F8E03015
:1024140003F49073002B00F0D180D7F8E43003F07C
:102424000103002B0BD0D7F8E03003F48073002BAA
:1024340005D07B685B6C43F001027B685A64D7F873
:10244400E43003F00403002B0BD0D7F8DC3003F0A6
:102454000103002B05D07B685B6C43F002027B68B0
:102464005A64D7F8E43003F00203002B0BD0D7F8FA
:10247400DC3003F00103002B05D07B685B6C43F078
:1024840004027B685A64D7F8E43003F00803002B95
:1024940011D0D7F8E03003F02003002B05D1D7F892
:1024A400DC3003F00103002B05D07B685B6C43F048
:1024B40008027B685A647B685B6C002B00F0F28135
:1024C400D7F8E43003F02003002B08D0D7F8E0302D
:1024D40003F02003002B02D0786800F077FB7B68C0
:1024E4001B685B6903F04003002B14BF0123002326
:1024F400DBB2C7F8D4307B685B6C03F00803002BB5
:1025040003D1D7F8D430002B4FD0786800F081FA8B
:102514007B681B685B6903F04003002B41D07B6838
:102524001B681433C7F89C30D7F89C3053E8003F3D
:10253400C7F89830D7F8983023F04003C7F8D03064
:102544007B681B681433D7F8D020C7F8A820C7F8D5
:10255400A430D7F8A410D7F8A82041E80023C7F87E
:10256400A030D7F8A030002BD9D17B68DB6B002BCF
:1025740013D07B68DB6B7E4A5A637B68DB6B18463F
:10258400FFF71AFA0346002B16D07B68DB6B5B6BF4
:102594007A68D26B104698470EE0786800F093F999
:1025A4000AE0786800F08FF906E0786800F08BF9AB
:1025B4007B6800225A6475E100BF73E17B681B6B82
:1025C400012B40F04F81D7F8E43003F01003002BC7
:1025D40000F04881D7F8E03003F01003002B00F03E
:1025E40041810023BB607B681B681B68BB607B6800
:1025F4001B685B68BB60BB687B681B685B6903F036
:102604004003002B00F0B6807B68DB6B1B685B68C3
:10261400A7F8BE30B7F8BE30002B00F045817B68C8
:102624009B8DB7F8BE209A4280F03E817B68B7F854
:10263400BE20DA857B68DB6B9B69202B00F08880E9
:102644007B681B680C33C7F88830D7F8883053E8A8
:10265400003FC7F88430D7F8843023F48073C7F878
:10266400B8307B681B680C33D7F8B820C7F89420BF
:10267400C7F89030D7F89010D7F8942041E8002399
:10268400C7F88C30D7F88C30002BD9D17B681B6805
:1026940014337B677B6F53E8003F3B673B6F23F04A
:1026A4000103C7F8B4307B681B681433D7F8B4202F
:1026B400C7F88020FB67F96FD7F8802041E8002332
:1026C400BB67BB6F002BE1D17B681B6814333B668F
:1026D4003B6E53E8003FFB65FB6D23F04003C7F8F6
:1026E400B0307B681B681433D7F8B020FA66BB6639
:1026F400B96EFA6E41E800237B667B6E002BE3D152
:102704007B68202283F842207B6800221A637B685E
:102714001B680C33FB64FB6C53E8003FBB64BB6C6D
:1027240023F01003C7F8AC307B681B680C33D7F870
:10273400AC20BA657B65796DBA6D41E800233B65D1
:102744003B6D002BE3D17B68DB6B1846FFF7F8F891
:102754007B6802225A637B689A8D7B68DB8D9BB20F
:10276400D31A9BB21946786800F0B6F89CE000BF13
:10277400DB2A00087B689A8D7B68DB8D9BB2D31AB9
:10278400A7F8CE307B68DB8D9BB2002B00F08E80E7
:10279400B7F8CE30002B00F089807B681B680C33BF
:1027A400BB63BB6B53E8003F7B637B6B23F4907389
:1027B400C7F8C8307B681B680C33D7F8C8207A6424
:1027C4003B64396C7A6C41E80023FB63FB6B002BA0
:1027D400E3D17B681B6814337B627B6A53E8003F58
:1027E4003B623B6A23F00103C7F8C4307B681B6873
:1027F4001433D7F8C4203A63FB62F96A3A6B41E8B0
:102804000023BB62BB6A002BE3D17B68202283F8E0
:1028140042207B6800221A637B681B680C333B618F
:102824003B6953E8003FFB60FB6823F01003C7F8E3
:10283400C0307B681B680C33D7F8C020FA61BB61D9
:10284400B969FA6941E800237B617B69002BE3D114
:102854007B6802225A63B7F8CE301946786800F0D4
:102864003BF823E0D7F8E43003F08003002B09D0D1
:10287400D7F8E03003F08003002B03D0786800F031
:102884003EF914E0D7F8E43003F04003002B0ED0F7
:10289400D7F8E03003F04003002B08D0786800F04C
:1028A4007DF904E000BF02E000BF00E000BFE837AC
:1028B400BD4680BD80B483B000AF786000BF0C37E4
:1028C400BD4680BC704780B483B000AF786000BF61
:1028D4000C37BD4680BC704780B483B000AF7860CD
:1028E4000B467B8000BF0C37BD4680BC704780B56B
:1028F40086B000AFF860B9603B601346FB713BE003
:102904003B6AB3F1FF3F37D0FEF7A2F802463B68BB
:10291400D31A3A6A9A4202D33B6A002B01D10323A9
:102924003AE0FB681B68DB6803F00403002B23D048
:10293400BB68802B20D0BB68402B1DD0FB681B6874
:102944001B6803F00803082B16D100237B61FB6886
:102954001B681B687B61FB681B685B687B617B6928
:10296400F86800F056F8FB6808225A64FB680022F5
:1029740083F8402001230FE0FB681B681A68BB68DA
:102984001340BA689A420CBF01230023DBB21A46F3
:10299400FB799A42B4D0002318461837BD4680BD4F
:1029A40080B485B000AFF860B9601346FB80FB6863
:1029B400BA689A62FB68FA889A85FB68FA88DA85AD
:1029C400FB6800225A64FB68222283F84220FB68D9
:1029D4001B69002B07D0FB681B68DA68FB681B685F
:1029E40042F48072DA60FB681B685A69FB681B68F2
:1029F40042F001025A61FB681B68DA68FB681B68D5
:102A040042F02002DA60002318461437BD4680BC29
:102A1400704780B495B000AF78607B681B680C3356
:102A24007B637B6B53E8003F3B633B6B23F4907306
:102A3400FB647B681B680C33FA6C3A64FB63F96BC8
:102A44003A6C41E80023BB63BB6B002BE5D17B6888
:102A54001B6814333B623B6A53E8003FFB61FB692C
:102A640023F00103BB647B681B681433BA6CFA62FD
:102A7400BB62B96AFA6A41E800237B627B6A002B75
:102A8400E5D17B681B6B012B19D17B681B680C3368
:102A9400FB60FB6853E8003FBB60BB6823F0100396
:102AA4007B647B681B680C337A6CBA617B617969DF
:102AB400BA6941E800233B613B69002BE5D17B689F
:102AC400202283F842207B6800221A6300BF543717
:102AD400BD4680BC704780B584B000AF78607B6829
:102AE4005B6AFB60FB680022DA85FB680022DA84FB
:102AF400F868FFF7E8FE00BF1037BD4680BD80B41C
:102B040085B000AF78607B6893F84130DBB2212B4D
:102B14003ED17B689B68B3F5805F14D17B681B69E9
:102B2400002B10D17B681B6AFB60FB681B881A466C
:102B34007B681B68C2F308025A607B681B6A9A1C94
:102B44007B681A6208E07B681B6A591C7A68116208
:102B54001A787B681B685A607B68DB8C9BB2013BEC
:102B64009BB27A681946D184002B0FD17B681B680D
:102B7400DA687B681B6822F08002DA607B681B6875
:102B8400DA687B681B6842F04002DA60002300E0E8
:102B9400022318461437BD4680BC704780B582B006
:102BA40000AF78607B681B68DA687B681B6822F07A
:102BB4004002DA607B68202283F841207868FFF7BE
:102BC40079FE002318460837BD4680BD80B58CB019
:102BD40000AF78607B6893F84230DBB2222B40F080
:102BE400AE807B689B68B3F5805F17D17B681B69F7
:102BF400002B13D10023FB627B689B6ABB627B685A
:102C04001B685B689BB2C3F308039AB2BB6A1A8061
:102C14007B689B6A9A1C7B689A6226E07B689B6A45
:102C2400FB620023BB627B689B68B3F5805F07D0BF
:102C34007B689B68002B0AD17B681B69002B06D13B
:102C44007B681B685B68DAB2FB6A1A7008E07B6811
:102C54001B685B68DBB203F07F03DAB2FB6A1A70AD
:102C64007B689B6A5A1C7B689A627B68DB8D9BB28B
:102C7400013B9BB27A681946D185002B5DD17B68F4
:102C84001B68DA687B681B6822F02002DA607B68C4
:102C94001B68DA687B681B6822F48072DA607B68E0
:102CA4001B685A697B681B6822F001025A617B68C1
:102CB400202283F842207B6800225A637B681B6BC6
:102CC400012B35D17B6800221A637B681B680C33A7
:102CD4007B617B6953E8003F3B613B6923F0100350
:102CE4007B627B681B680C337A6A3A62FB61F96920
:102CF4003A6A41E80023BB61BB69002BE5D17B68DC
:102D04001B681B6803F01003102B0AD10023FB601F
:102D14007B681B681B68FB607B681B685B68FB60E7
:102D2400FB687B689B8D19467868FFF7D5FD02E048
:102D3400786800F021F9002302E0002300E0022378
:102D440018463037BD4680BD80B584B000AF78608A
:102D54007B681B681B6923F440517B68DA687B68D5
:102D64001B680A431A617B689A687B681B691A436B
:102D74007B685B691343BB607B681B68DB6823F477
:102D8400B05323F00C037A681268B9680B43D3601C
:102D94007B681B685B6923F440717B689A697B6874
:102DA4001B680A435A617B681B682C4A934203D10F
:102DB400FEF75AFAF86002E0FEF742FAF860FA68A1
:102DC40013469B0013449A001A447B685B689B007B
:102DD400B2FBF3F3224AA2FB03235B091901FA684D
:102DE40013469B0013449A001A447B685B689B005B
:102DF400B2FBF3F21A4BA3FB02035B09642000FB52
:102E040003F3D31A1B013233154AA2FB03235B09D4
:102E140003F0F0031944FA6813469B0013449A0024
:102E24001A447B685B689B00B2FBF3F20C4BA3FB78
:102E340002035B09642000FB03F3D31A1B01323342
:102E4400074AA2FB03235B0903F00F027B681B689C
:102E54000A449A6000BF1037BD4680BD0038014067
:102E64001F85EB5180B400AFBFF34F8F00BF064BFB
:102E7400DB6803F4E0620449044B1343CB60BFF303
:102E84004F8F00BF00BFFDE700ED00E00400FA052E
:102E940080B500AFFDF784FD00F00EF800F084F873
:102EA40000F03CF900F0CCF800F0F8FA00F0C6FAB3
:102EB40000F02EFBFFF7D6FF80B596B000AF07F108
:102EC400300328220021184601F09DF807F11C0365
:102ED40000221A605A609A60DA601A613B1D00226F
:102EE4001A605A609A60DA601A615A6109233B6376
:102EF4004FF480337B630023BB6301233B640123D2
:102F0400BB640223FB644FF480333B654FF4E0134E
:102F14007B6507F130031846FDF7C8FD0346002B17
:102F240001D000F03BF80F23FB6102233B62002336
:102F34007B624FF48063BB620023FB6207F11C03D6
:102F440002211846FEF734F80346002B01D000F0A6
:102F540025F801237B604FF40073BB603B1D1846CA
:102F6400FEF7B4F90346002B01D000F017F800BFB8
:102F74005837BD4680BD000080B582B000AF786090
:102F84007B681B68044A934202D1786800F01EFBF8
:102F940000BF0837BD4680BD0048004080B400AF84
:102FA40072B600BF00BFFDE780B588B000AF07F17F
:102FB400100300221A605A609A60DA601E4B9B6903
:102FC4001D4A43F0400393611B4B9B6903F040038C
:102FD400FB60FB68184B9B69174A43F00803936135
:102FE400154B9B6903F00803BB60BB68124B9B69DC
:102FF400114A43F0040393610F4B9B6903F00403EC
:103004007B607B6800224FF400410C48FEF780FC93
:103014004FF400433B6101237B610023BB61032325
:10302400FB6107F1100319460448FEF7DDFA00BFFF
:103034002037BD4680BD00BF00100240001801408B
:1030440080B582B000AF3B1D00210A461A800A46B3
:103054009A7000233B601D4B1D4A1A601B4B4FF0B6
:10306400FF325A60194B4FF480729A601748FDF78B
:10307400DDF80346002B01D0FFF790FF00233B71DE
:1030840000237B710023BB713B1D012219460F48AD
:10309400FDF758F90346002B01D0FFF77FFF01230A
:1030A4003B7001237B700123BB700023FB703B4604
:1030B400012219460548FDF7DDF90346002B01D02E
:1030C400FFF76CFF00BF0837BD4680BD50000020ED
:1030D4000028004080B584B000AF78607B681B682E
:1030E4000B4A934210D1FEF77DFE0A4BDB69094A75
:1030F40043F00063D361074BDB6903F00063FB60BB
:10310400FB68054B01221A6000BF1037BD4680BD25
:1031140000280040001002403C04424280B500AF49
:10312400114B124A1A60104B4FF416525A600E4B50
:1031340000229A600C4B0022DA600B4B00221A61C9
:10314400094B0C225A61084B00229A61064B00225B
:10315400DA610548FFF71CF80346002B01D0FFF79E
:103164001DFF00BF80BD00BF640000200048004078
:1031740080B588B000AF786007F1100300221A60B0
:103184005A609A60DA607B681B68204A934239D19E
:103194001F4BDB691E4A43F48023D3611C4BDB695C
:1031A40003F48023FB60FB68194B9B69184A43F0C6
:1031B40008039361164B9B6903F00803BB60BB686B
:1031C4004FF480633B6102237B610323FB6107F1BE
:1031D400100319460F48FEF707FA4FF400633B61EA
:1031E40000237B610023BB6107F1100319460948E2
:1031F400FEF7FAF9002203212720FEF7BCFD272061
:10320400FEF7D5FD00BF2037BD4680BD0048004015
:1032140000100240000C014080B400AF00BFFDE785
:1032240080B400AF00BFFDE780B400AF00BFFDE78E
:1032340080B400AF00BFFDE780B400AF00BFFDE77E
:1032440080B400AF00BFBD4680BC704780B400AFFF
:1032540000BFBD4680BC704780B400AF00BFBD4610
:1032640080BC704780B500AFFDF7E0FB024B012244
:103274001A7000BF80BD00BFAC00002080B500AF55
:103284000248FFF785F800BF80BD00BF640000203E
:1032940080B485B000AF154B9B69144A43F0010319
:1032A4009361124B9B6903F00103BB60BB680F4B36
:1032B400DB690E4A43F08053D3610C4BDB6903F0A6
:1032C40080537B607B680A4B5B68FB60FB6823F080
:1032D400E063FB60FB6843F00073FB60044AFB6837
:1032E400536000BF1437BD4680BC704700100240D5
:1032F40000000140FCF794FF0B480C490C4A0023E2
:1033040002E0D458C4500433C4188C42F9D3094A97
:10331400094C002301E013600432A242FBD300F005
:103324007BFEFFF7B5FD7047000000200C00002075
:10333400E04000080C000020DC040020FEE780B41C
:1033440083B000AF78607B681A0E7B681B0A03F4B5
:103354007F431A437B681B0203F47F031A437B6891
:103364001B06134318460C37BD4680BC704700004B
:1033740080B584B000AF78607B68002B01D1002356
:103384002FE0FEF72FFD01211848FDF7EDFAF86054
:1033940002211648FDF7E8FAB860FB6845F65A22A0
:1033A400934204D1BB684AF2A552934201D0002350
:1033B40017E003210D48FDF7D7FA0346DAB27B681C
:1033C4001A7004210948FDF7CFFA02467B685A6057
:1033D40005210648FDF7C8FA0346DAB27B681A727B
:1033E400012318461037BD4680BD00BF50000020A1
:1033F40080B500AFFEF7F6FC002201210E48FDF770
:1034040099FA002202210C48FDF794FA00220321C4
:103414000948FDF78FFA002204210748FDF78AFACC
:10342400002205210448FDF785FA002206210248FE
:10343400FDF780FA00BF80BD5000002080B588B041
:1034440000AF07F110031846FFF792FF0346002B65
:1034540020D03B1D00221A605A601A723B1DFB618A
:10346400FB6941221A70FB6901225A70FB6906222A
:103474009A703A7CFB69DA707A69FB695A603A7E21
:10348400FB691A723B1D0921184600F01FFA00F06F
:103494003FF800E000BF2037BD4680BD80B500AFD7
:1034A40000F012F8012205490548FEF74CFFFDF72C
:1034B400CFFA0346034A136000BF80BDD002002048
:1034C40064000020CC02002080B500AF0B4B00222A
:1034D4001A700B4B00221A8018220021094800F0B0
:1034E40092FD4FF400720021074800F08CFDFDF7B7
:1034F400AFFA0346054A136000BF80BDAD0000204B
:10350400C8020020B0000020C8000020CC02002027
:1035140080B582B000AFFDF79BFA034603F2DC539B
:103524007B6000233B60224B1B881A463B68934216
:1035340008D01F4B1B883B60FDF78AFA034603F251
:10354400DC537B601B4B1B78DBB2002B15D0194B73
:1035540000221A7000F02EF9154B00221A80164B27
:1035640000221A70012215491548FEF7ECFEFDF7FA
:103574006FFA034603F2DC537B60124B1B78002B7B
:10358400D1D1FDF765FA02467B689342CBD20E484F
:1035940000F084FC0346002B03D00B4800F0BEFC73
:1035A400C1E7FDF755FA034603F2DC537B60BAE743
:1035B400C8020020D4040020D8040020D002002037
:1035C40064000020AD0000200080000880B582B0B7
:1035D40000AF78607B681B681D4A934233D11D4B52
:1035E4001B78DBB2002B2ED11B4B1B885A1C91B2CB
:1035F400194A11801A46194B1978194B9954164BCC
:103604001B881946164800F0B7F80346002B14D05F
:10361400114B1A88134B1A80124B1B889BB21A4603
:103624000F49114800F01CFD104B01221A70094B80
:1036340001221A70084B00221A80012207490C4803
:10364400FEF781FE00E000BF0837BD4680BD00BF25
:1036540000480040D8040020C8020020D002002006
:10366400C8000020D6040020D4020020D404002086
:103674006400002080B582B000AF78600B467B8088
:1036840001224FF400410D48FEF742F97A88642381
:1036940079680B48FEF7CCFD00BF094B1B681B681B
:1036A40003F04003402BF8D100224FF400410348BB
:1036B400FEF72EF900BF0837BD4680BD0018014053
:1036C4006400002080B584B000AF0346FB71C123C1
:1036D4003B73FB797B7307F10C0302211846FFF758
:1036E400C9FF034B04221A7000BF1037BD4680BDCA
:1036F400AD00002080B584B000AF78600B467B80BD
:103704007B681B78FB73FB7B412B2DD17B685B783B
:10371400BB73BB7B013B032B22D801A252F823F0DD
:1037240035370008413700084D370008593700087D
:103734007B881946786800F0C9F819E07B88194637
:10374400786800F077F913E07B881946786800F010
:1037540019FA0DE07B881946786800F07BFA07E0D7
:103764000220FFF7AFFF03E00120FFF7ABFF00BF2C
:1037740000BF1037BD4680BD80B485B000AF78600F
:103784000B467B807B88022B01D800230DE07B68ED
:103794009B78FB73FB7B9BB20333BB817A88BB8929
:1037A4009A422CBF01230023DBB218461437BD46CE
:1037B40080BC704780B582B000AF1B4B1B88FB8078
:1037C400FB8819461948FFF7D7FF0346002B27D07B
:1037D400164B9B787B717B799BB203337B807B8810
:1037E40019461248FFF786FF114B1B887A889A42C4
:1037F40013D27B880D4A99180D4B1B881A467B8877
:10380400D31A1A460B4800F0E5FB094B1A887B884B
:10381400D31A9AB2064B1A8002E0054B00221A8092
:1038240000BF0837BD4680BDD6040020D402002066
:10383400C8020020C800002080B582B000AF7860C4
:103844000B467B80074BDB897A887968184600F041
:1038540087FB03461A46034BDA8100BF0837BD468F
:1038640080BD00BFB000002080B584B000AF786098
:103874007B681B78412B03D17B685B78012B01D0DB
:1038840000231FE07B689B78062B01D0002319E0FE
:103894007B68DB78AE2B03D97B68DB78B52B01D949
:1038A40000230FE07B685B681846FFF748FDF8606B
:1038B400FB68002B03D0FB68B3F5801F01D90023FC
:1038C40000E0012318461037BD4680BD80B588B09E
:1038D40000AF78600B467B807B88092B03D00320E4
:1038E400FFF7F0FE6AE07B68FB61F869FFF7BCFF55
:1038F400034683F00103DBB2002B03D00120FFF762
:10390400E1FE5BE02F4B1B78002B07D02D4B1B787F
:10391400042B03D00520FFF7D5FE4FE0FB695B685D
:103924001846FFF70CFDB861FB69DA78264B1A706C
:10393400254ABB695360FB691B7AE02B28BFE0234F
:10394400DAB2214B1A74204B204A5A611E4B4FF6AF
:10395400FF72DA811C4B00229A601B4B00229A8171
:10396400194B5B6803F2FF73DB0A7B61164B5B69DF
:103974007969184600F0CEF9034683F00103DBB2FF
:10398400002B03D00820FFF79DFE17E041233B7274
:1039940001237B720623BB72FB69DB78FB72FB6934
:1039A4005B68FB60084B1B7C3B7407F1080309212F
:1039B4001846FFF75FFE034B01221A702037BD46FD
:1039C40080BD00BFAD000020B000002000800008D2
:1039D40080B483B000AF78600B467B807B681B7833
:1039E400412B03D17B685B78022B01D000231AE0C2
:1039F4007B68DA780E4B1B789A4201D0002312E0E0
:103A04000B4B1B7C1A467B88934201D900230AE0A6
:103A1400074B9A687B881A44054B5B689A4201D924
:103A2400002300E0012318460C37BD4680BC7047D4
:103A3400B000002080B588B000AF78600B467B8072
:103A44007B88062B03D80320FFF73CFE6FE07B68DE
:103A5400FB617B680733BB61FB699B78043BFB829A
:103A6400344B1B78012B07D0324B1B78022B03D02D
:103A74000520FFF727FE5AE0FB8A1946F869FFF78D
:103A8400A7FF034683F00103DBB2002B03D003201E
:103A9400FFF718FE4BE0284B5A69274B9B681344E9
:103AA4003B61FB8A1A46B969386900F073F9034629
:103AB40083F00103DBB2002B03D00620FFF702FEE4
:103AC40035E0FB8A1946B869FFF7B6FE1A4B9A68C7
:103AD400FB8A1344184A936041233B7202237B728E
:103AE4000423BB72FB69DB78FB72FB695B791BB255
:103AF4001B021AB2FB691B791BB213431BB29BB2A4
:103B0400BB81FB8ADBB2BB7307F1080307211846AC
:103B1400FFF7B0FD084B9A68074B5B689A4203D3E2
:103B2400044B03221A7002E0024B02221A7020375F
:103B3400BD4680BDAD000020B000002080B483B03D
:103B440000AF78607B681B78412B03D17B685B787E
:103B5400032B01D000230EE07B689B78032B01D05C
:103B6400002308E07B68DA78054B1B789A4201D081
:103B7400002300E0012318460C37BD4680BC704783
:103B8400B000002080B586B000AF78600B467B8023
:103B94007B88062B03D00320FFF794FD53E07B685A
:103BA4007B612A4B1B78032B03D00520FFF78AFD8A
:103BB40049E07869FFF7C2FF034683F00103DBB2F3
:103BC400002B03D00120FFF77DFD3CE0204B9A68D9
:103BD4001F4B5B689A4203D00320FFF773FD32E06A
:103BE4007B699B889BB21B0A9BB21AB27B699B8838
:103BF4009BB21BB21B021BB213431BB27B82144B3E
:103C0400DB897A8A9A4203D00720FFF75BFD1AE02A
:103C14007B699B889AB20E4B9A8141233B730323A1
:103C24007B730323BB737B69DB78FB737B699B88A2
:103C34009BB23B8207F10C0306211846FFF71AFDDD
:103C4400024B03221A701837BD4680BDAD00002018
:103C5400B000002080B584B000AF78600B467B8054
:103C64007B88042B21D17B68FB60FB68DA78144BDA
:103C74001B789A421BD1134B1B78032B19D1104B81
:103C84005B69184600F00AF9034683F00103DBB2CE
:103C9400002B10D1FFF7ACFB0A20FCF7E3FE084B26
:103CA4005B69184600F03AF906E000BF04E000BF83
:103CB40002E000BF00E000BF1037BD4680BD00BF7A
:103CC400B0000020AD00002080B400AF074B1B699A
:103CD40003F08003002B05D0044B054A5A60034BC4
:103CE400044A5A6000BFBD4680BC704700200240B1
:103CF40023016745AB89EFCD80B400AF044B1B694A
:103D0400034A43F08003136100BFBD4680BC704783
:103D14000020024080B588B000AF786039607B68CD
:103D2400B3F1006F06D33B68DA027B681344174A89
:103D3400934201D9002325E00023BB60FFF7C4FFB1
:103D440000BF134BDB6803F00103002BF9D1002300
:103D5400FB607B687B613B68BB6107F1080207F18C
:103D64000C0311461846FEF76BF90346FB77084B24
:103D74003422DA60FFF7C0FFFB7F002B0CBF012366
:103D84000023DBB218462037BD4680BD000004087E
:103D940000200240B0B586B000AFF860B9607A6028
:103DA400FB68B3F1006F08D3FA687B681344394A9F
:103DB400934202D87B68002B01D1002366E0FB68A4
:103DC40003F00103002B01D000235FE0FFF77CFF29
:103DD40000BF314BDB6803F00103002BF9D1002352
:103DE4007B6149E0BA687B6913441B787B827B69F9
:103DF40001337A689A420AD97B690133BA68134459
:103E04001B781B029AB27B8A13437B8203E07B8A72
:103E140063F0FF037B82FA687B69D1187B8A0022F6
:103E24001C46154622462B460120FDF7E7FF0346B4
:103E34007B747B7C002B06D0174B3422DA60FFF7AF
:103E44005BFF002322E000BF134BDB6803F0010398
:103E5400002BF9D1FA687B6913441B889BB27A8AD8
:103E64009A4206D00C4B3422DA60FFF745FF002358
:103E74000CE07B6902337B617A697B689A42B1D337
:103E8400054B3422DA60FFF737FF01231846183751
:103E9400BD46B0BD000004080020024080B485B0D7
:103EA40000AF78607B681A4A934203D37B68194A4F
:103EB400934201D9002325E07B681B68FB607B6883
:103EC40004331B68BB60FB68B3F1FF3F03D0BB68DE
:103ED400B3F1FF3F01D1002314E0FB68B3F1005FAD
:103EE40003D3FB680C4A934201D900230AE0BB6860
:103EF400074A934203D3BB68064A934201D900237D
:103F040000E0012318461437BD4680BC704700BF4B
:103F140000800008FFFF030800C0002080B586B0C1
:103F240000AF78607B681B687B617B6804331B6827
:103F34003B61094B00221A60084A7B6893607B69E5
:103F4400BB60BB6883F3088800BF3B69FB60FB6808
:103F5400984700BFFDE700BF10E000E000ED00E07F
:103F640080B487B000AF0346B9607A60FB81002358
:103F74007B6122E0BA687B6913441B781A46FB898B
:103F84005340FB810023FB7411E0FB8903F0010320
:103F9400002B06D0FB895B089AB20D4B5340FB8182
:103FA40002E0FB895B08FB81FB7C0133FB74FB7C37
:103FB400072BEAD97B6901337B617A697B689A4272
:103FC400D8D3FB8918461C37BD4680BC704700BF58
:103FD40001A0FFFF884210B501EB020402D984421C
:103FE400234607D8431EA14207D011F8012B03F83A
:103FF400012FF8E70244824200D110BD13F8011DDD
:1040040002F8011DF7E703460244934200D17047CA
:1040140003F8011BF9E7000070B500260C4D0D4BA9
:104024005B1B9C10A64209D1002600F027F80A4D1C
:104034000A4B5B1B9C10A64205D170BD55F8043B8E
:1040440098470136EEE755F8043B98470136F2E706
:10405400D8400008D8400008D8400008DC400008D8
:104064000A44914200F1FF3300D1704710B511F8B2
:10407400014B914203F8014FF9D110BDF8B500BFCF
:10408400F8BC08BC9E467047F8B500BFF8BC08BC35
:044094009E4670478D
:1040980000000000000000000102030406070809F0
:1040A80000000000010203040203040506070809D2
:1040B8000A0B0C0D0E0F101001020000020304057C
:1040C800060708090A0B0C0D0E0F1010010200005C
:0440D80009020008D1
:0440DC00E5010008F2
:0C40E00000127A00100000000100000037
:04000005080032F9C4
:00000001FF
