:020000040800F2
:1000000000C00020051D0008911C0008931C00087A
:10001000951C0008971C0008991C000800000000AF
:100020000000000000000000000000009B1C000811
:100030009D1C0008000000009F1C0008A11C000877
:100040004D1D00084D1D00084D1D00084D1D0008E8
:100050004D1D00084D1D00084D1D00084D1D0008D8
:100060004D1D00084D1D00084D1D00084D1D0008C8
:100070004D1D00084D1D00084D1D00084D1D0008B8
:100080004D1D00084D1D00084D1D00084D1D0008A8
:100090004D1D00084D1D00084D1D00084D1D000898
:1000A0004D1D00084D1D00084D1D00084D1D000888
:1000B0004D1D00084D1D00084D1D00084D1D000878
:1000C0004D1D00084D1D00084D1D00084D1D000868
:1000D0004D1D00084D1D00084D1D0008B51C0008F1
:1000E0004D1D00084D1D00084D1D00084D1D000848
:1000F0004D1D00084D1D00084D1D00084D1D000838
:100100004D1D00084D1D00084D1D00084D1D000827
:100110004D1D00084D1D00084D1D00084D1D000817
:100120004D1D00084D1D00084D1D00084D1D000807
:1001300000000000000000000000000000000000BF
:1001400000000000000000000000000000000000AF
:10015000000000000000000000000000000000009F
:10016000000000000000000000000000000000008F
:10017000000000000000000000000000000000007F
:10018000000000000000000000000000000000006F
:10019000000000000000000000000000000000005F
:1001A000000000000000000000000000000000004F
:1001B000000000000000000000000000000000003F
:1001C000000000000000000000000000000000002F
:1001D000000000000000000000000000000000001F
:0401E0005FF8E0F1F3
:1001E40010B5054C237833B9044B13B10448AFF36D
:1001F40000800123237010BD1000002000000000C7
:100204008024000808B5034B1BB103490348AFF32E
:10021400008008BD000000001400002080240008B5
:100224007047036830B59A69D869996995B28CB2F8
:10023400A54217BFD86980B280B240EA014008BF26
:1002440040EA024030BD0368186A5B6A9BB243EA25
:10025400004070470A22030900F00F0002FB03006C
:10026400C0B2704730B5172509234D430229B5FBA9
:10027400F3F500F5FA6417D800F2CF73101D4FF4AC
:10028400C872B3FBF2F22044284400EB93001044FC
:100294006422B3FBF2F3C01A0723B0FBF3F3C3EBFE
:1002A400C303C01AC0B230BD4FF4C873B4FBF3F338
:1002B400901C2044284400EB940018446423B4FBAD
:1002C400F3F4001BE8E738B5044600F0C3F905462B
:1002D40023685A68920605D500205A6842F0100235
:1002E4005A6038BD00F0B6F9401BB0F57A7FEFD9FB
:1002F4000320F6E7026838B55368044623F0100378
:10030400536000F0A7F9054623685B689B0601D596
:10031400002038BD00F09EF9401BB0F57A7FF3D978
:100324000320F6E738B505460C46FFF7CCFF58B96D
:100334002B68220CA4B29A612846DC61FFF7DAFF2D
:10034400003818BF012038BD0120FCE738B5054648
:100354000C46FFF7B8FF58B92B68220CA4B21A62F6
:1003640028465C62FFF7C6FF003818BF012038BD7D
:100374000120FCE7F8B50446E8B1E1B1037C0226AC
:10038400012B19D001234674037408784D788F78B3
:10039400A2B93C235D434FF4616303FB00553D4424
:1003A40029462046FFF7BEFF07460646C0B1042390
:1003B40063740023237401263046F8BDFFF74AFF17
:1003C40006462846FFF746FF3C2303FB00F14FF4A3
:1003D4006163384603FB0611FFF73CFF4518DFE76E
:1003E40022682046536823F005035360FFF72BFF70
:1003F40085420BD900F5A83101F5C0712046FFF7FD
:10040400A5FF18B1042327746374D4E7012363742C
:1004140000232374D0E7000070B50D46044640B3B2
:1004240039B3037C0220012B24D00123607423748C
:10043400CE7802BBE67349786173AA78A27330461A
:10044400FFF710FF207328702046FFF7EAFE1C4BCD
:10045400984230D91B4DB0FBF5F205FB120520463E
:100464002946FFF75FFF0646A0B104236374002307
:100474002374012070BD3046FFF7ECFEE07306469E
:100484004878FFF7E7FE60730146A878FFF7E2FEBD
:100494000246D3E72046FFF7D6FEA8420BD200F56A
:1004A400A83101F5C0712046FFF750FF18B10423AD
:1004B40026746374DDE70123002063742074D9E794
:1004C4008F5F01008051010038B50446A8B102686D
:1004D400536823F00803536000F0BCF80546236812
:1004E4005B681B0701D5002038BD00F0B3F8401B42
:1004F400B0F57A7FF3D90320F6E70120F4E7000092
:1005040010B5044670B1437C03F0FF0213B90274C2
:1005140001F03EFB022320466374FFF7D5FF18B1B8
:1005240004236374012010BD2046FFF7CCFE00288D
:10053400F6D12268A168536823F007035360124A76
:1005440019B1136B23F001031363D36A23F46073AB
:100554000B43D3626068431C05D1012000F0F6FB15
:100564000028DDD001382368C0F3034280B29A60CA
:10057400D8602046FFF7BEFE0028D1D10123637363
:10058400E3816374CFE700BF006C0040890001F190
:10059400804101F5D84192B20A607047890001F1A7
:1005A400804101F5D841086880B270477047000067
:1005B40010B54FF0FF320024044B1A611C61DA605D
:1005C400DC60FFF7F3FF204610BD00BF00100240BF
:1005D40038B50E4B05461A784FF47A73B3FBF2F331
:1005E4000B4A1068B0FBF3F000F0DCFD044658B988
:1005F4000F2D09D8024629464FF0FF3000F094FD34
:100604002046044B1D6038BD0120FCE70400002097
:100614000000002008000020074A08B513680320E2
:1006240043F01003136000F06DFD0F20FFF7D0FFBF
:1006340001F044FB002008BD00200240034A044BA3
:1006440011681B780B441360704700BF2C00002016
:1006540004000020014B1868704700BF2C000020E4
:1006640038B50446FFF7F6FF0546631C1EBF044B6E
:100674001B78E418FFF7EEFF431BA342FAD338BDFF
:100684000400002070B5FFF7E5FF05462F4C2368F2
:1006940043F00103236023689B073BD5236841F2A1
:1006A400883623F0F80343F080032360FFF7D2FF7A
:1006B400002305466360636813F00C0F32D1244BAA
:1006C400244A1A60244B1868FFF782FF0546002865
:1006D4003AD1FFF7BFFF0646236823F080732360F7
:1006E400236813F0007323D16360FFF7B3FF06465A
:1006F400236823F410232360236813F400331DD1EB
:10070400226822F480222260626A42F0807262626D
:10071400A36005E0FFF79EFF401B0228BBD9032519
:10072400284670BDFFF796FF401BB042C3D9F6E7D9
:10073400FFF790FF801B0228D2D9F0E7FFF78AFF6A
:10074400801B6428D8D9EAE70125E9E700100240B4
:100754000000002000127A00080000202DE9F34177
:10076400054638B30368DB0710D42B689F075ED4B3
:100774002B68190700F195802B685A0700F1C18096
:10078400EB69002B40F02C81002029E0904C636839
:1007940003F00C03042B07D0636803F00C03082B4D
:1007A4000AD16368DE0307D523689C03DDD56B6833
:1007B400002BDAD1012013E06B68B3F5803F12D12E
:1007C400236843F480332360FFF744FF064623681D
:1007D4009803CAD4FFF73EFF801B6428F7D903208F
:1007E40002B0BDE8F0819BB9236823F48033236011
:1007F400236823F480232360FFF72CFF0646236835
:100804009903B2D5FFF726FF801B6428F7D9E6E7E2
:10081400B3F5A02F236803D143F480232360CFE7EB
:1008240023F480332360236823F48023CBE7684CCC
:10083400636813F00C0F07D0636803F00C03082BF4
:1008440010D16368DA030DD423689B0702D52B69A2
:10085400012BAFD123686A6923F0F80343EAC2038A
:10086400236085E72A695B4B6AB101221A60FFF7AE
:10087400F1FE064623689F07ECD4FFF7EBFE801BCE
:100884000228F7D9ABE71A60FFF7E4FE06462368AF
:1008940098077FF56DAFFFF7DDFE801B0228F6D9C0
:1008A4009DE7AA694A4E4B4BE2B10122C3F880246A
:1008B400FFF7D0FE0446736A9B070DD54FF4FA5236
:1008C400454B1B68B3FBF2F3019300BF019B5A1E17
:1008D4000192002BF9D14FE7FFF7BCFE001B022861
:1008E400E9D97CE7C3F88024FFF7B4FE0446736AB1
:1008F4009F077FF541AFFFF7ADFE001B0228F6D935
:100904006DE7334CE369D80024D40127E36943F04D
:100914008053E361E36903F080530093009B2F4EFF
:100924003368D90518D5EB68012B26D1236A43F027
:1009340001032362FFF78EFE41F288380646236ADC
:100944009B073FD5002F3FF41BAFE36923F080538F
:10095400E36115E70027E2E7336843F4807333600B
:10096400FFF778FE80463368DA05DCD4FFF772FEC1
:10097400A0EB08006428F6D931E7ABB9236A41F249
:10098400883823F001032362236A23F004032362DB
:10099400FFF760FE0646236A9807D3D5FFF75AFE91
:1009A400801B4045F7D91AE7052B236A03D143F08E
:1009B40004032362BAE723F001032362236A23F0CA
:1009C4000403B6E7FFF746FE801B4045B7D906E7A8
:1009D400001002400000424200000020007000406D
:1009E4002A4C626802F00C02082A3ED00022022B34
:1009F400274B1A662CD1FFF72DFE06462368990172
:100A040020D42B6AB3F5803F05D16268A96822F42B
:100A140000320A436260696A62680B4322F474120A
:100A24001343012263601A4B1A66FFF713FE05464F
:100A340023689A013FF5A8AEFFF70CFE401B02287D
:100A4400F6D9CCE6FFF706FE801B0228D6D9C6E607
:100A5400FFF700FE054623689B017FF595AEFFF77F
:100A6400F9FD401B0228F6D9B9E6012B3FF4A2AEEA
:100A740060682B6A00F480329A427FF49BAE6B6A02
:100A840000F47010C01A18BF0120A9E6001002403B
:100A9400000042420D4A536803F00C01082912D1A8
:100AA4000B48C3F38341DB03405C09D55368094A0F
:100AB400C3F340435043084AD35CB0FBF3F07047A0
:100AC400064B584370470348704700BF001002406C
:100AD400B224000800127A00B024000800093D0086
:100AE4002DE9F0410D46044610B90120BDE8F0811E
:100AF400444A136803F007038B4228D321688E0706
:100B040030D4CA0743D43F4A136803F00703AB4207
:100B140065D822683C4D12F0040F6CD1130706D53A
:100B24006B68226923F4605343EAC2036B60FFF7E6
:100B3400B1FF6B68354AC3F30313D35CD840344B1D
:100B44001860344B1868FFF743FD0020CEE71368A4
:100B540023F007030B431360136803F007038B426E
:100B6400C3D1CBE7284B11F0040F1EBF5A6842F4DF
:100B7400E0625A60080742BF5A6842F460525A6001
:100B84005A68A06822F0F00202435A60B9E762682A
:100B94001D4E012A33681AD113F4003FA5D073689F
:100BA40041F2883823F0030313437360FFF752FDC7
:100BB40007467368626803F00C03B3EB820FA2D09C
:100BC400FFF748FDC01B4045F3D903208EE7022AF6
:100BD40002D113F0007FE1E713F0020FDEE71368A0
:100BE40023F007032B431360136803F00703AB429E
:100BF4007FF47BAF8DE76B68E16823F4E0630B431C
:100C04006B608BE70020024000100240A024000823
:100C14000000002008000020044B054A5B68C3F371
:100C24000223D35C034A1068D84070470010024086
:100C34009824000800000020044B054A5B68C3F3B5
:100C4400C223D35C034A1068D840704700100240A6
:100C5400982400080000002003682DE9F3410546AC
:100C6400D80720D5364CE369D9002AD40126E36994
:100C740043F08053E361E36903F080530193019BE4
:100C8400304F3B68DA051ED5236A13F440732ED126
:100C9400236A6A6823F44073134323621EB1E36931
:100CA40023F08053E3612A68910706D52449A86894
:100CB4004B6823F4404303434B60D30637D40020EE
:100CC40012E00026DCE73B6843F480733B60FFF7E7
:100CD400C1FC80463B68DB05D6D4FFF7BBFCA0EB28
:100CE40008006428F6D9032002B0BDE8F0816A68E0
:100CF40002F440729A42CBD00120134A236AC2F80C
:100D04004004002023F44071DF07C2F8400421624C
:100D1400BED5FFF79FFC41F288380746236A98073F
:100D2400B6D4FFF797FCC01B4045F7D9DBE7044A6C
:100D34006969536823F480030B435360BFE700BF22
:100D4400001002400070004000004242082808B52C
:100D54000AD8002843D00138072856D8DFE800F025
:100D64002B4955275555552710284ED1284B5A68DD
:100D7400186810F0807032D0C2F383412548D20342
:100D840048BF5A68405C41BF2349C2F34042895C72
:100D9400224A5B684CBFB2FBF1F2214A5B0202FBC0
:100DA40000F01CD403234000B0FBF3F017E0BDE8CF
:100DB4000840FFF76FBE40F20231154A136A19402A
:100DC400B1F5817F1ED003F44073B3F5007F07D1E2
:100DD40049F64040536A13F0020F08BF002008BDD3
:100DE400B3F5407F11D113684FF2244013F4003F50
:100DF400F3E7FFF721FF064B5B68C3F3813301334D
:100E04005B00D1E74FF40040E9E70020E7E700BFCB
:100E140000100240C4240008C224000800127A0012
:100E240000093D002DE9F74F00244FF00F0E264630
:100E3400DFF89CC1674B00F104080A6832FA06F532
:100E440002D103B0BDE8F08F012505FA06F702EAE6
:100E5400070537EA02027ED14A68032A07D8013A15
:100E6400022A00F28C80DFE802F09A9FA500122A81
:100E740000F09D8071D8112A00F09380FF2D94BF5B
:100E84008146C1464FEA8602D9F8007088BF203AED
:100E94000EFA02FA27EA0A0704FA02F21743C9F81B
:100EA4000070D1F8049019F0805F54D0DCF8182059
:100EB40026F0030742F00102CCF81820DCF81820D1
:100EC40007F1804702F00102019207F5803706F02E
:100ED400030A019A4FEA8A0ABA680EFA0AFB22EA5E
:100EE4000B0B3D4A904269D002F58062904267D074
:100EF40002F58062904265D002F58062904263D030
:100F040002F58062904261D002F58062904214BF83
:100F14000622052202FA0AF242EA0B02BA609A6831
:100F240019F4801F14BF2A43AA439A60DA6819F49B
:100F3400001F14BF2A43AA43DA605A6819F4003F19
:100F440014BF2A43AA435A601A6819F4803F14BF95
:100F54002A43AA431A6001366FE7DFF880904A45B6
:100F64000DD015D8A9F580194A4508D009F570297E
:100F74004A4504D0A9F580194A457FF47FAF8A68B1
:100F8400D2B1012A4FF008040CBF0761476175E72D
:100F9400DFF84C904A45F2D009F58039ECE7CC688B
:100FA4006CE7CC68043469E7CC68083466E7CC683D
:100FB4000C3463E7002461E704245FE70022A9E717
:100FC4000122A7E70222A5E70322A3E70422A1E75F
:100FD40000100240000401400008014000002210FB
:100FE400000031100AB1016170470904FBE790F871
:100FF40021200346022A06D0042282630120002213
:1010040083F8202070470268C06B116821F00E013C
:101014001160116821F00101116001211A6C01FABB
:1010240002F24260002083F82110E8E708B590F846
:101034002130022B03D004238363012008BD0368FD
:101044001A6822F00E021A601A6822F001021A606D
:10105400284A934224D902F56272934219D0143279
:10106400934218D01432934217D01432934214BFCF
:101074004FF480334FF480531F4A5360012380F8A8
:101084002130002380F82030436B03B198470020BF
:10109400D4E70123F0E71023EEE74FF48073EBE786
:1010A40016498B4216D014318B4215D014318B4221
:1010B40014D014318B4214D014318B4214D0143117
:1010C4008B4214D0934214BF4FF480334FF080739B
:1010D4000B4AD2E70123FBE71023F9E74FF48073AF
:1010E400F6E74FF48053F3E74FF48033F0E74FF41F
:1010F4008013EDE780000240000402400800024033
:101104000000024007490302CA6803F4E06322F4C2
:10111400E0621204120C134343F0BF6343F4003340
:10112400CB60704700ED00E0154B30B5DC68C4F3CC
:101134000224C4F10703251D042B28BF0423062D14
:101144004FF0FF3594BF0024033C05FA03F321EA72
:101154000303A54022EA0502A340002843EA020350
:10116400ACBF00F16040074A4FEA0313DBB2ABBFE8
:1011740000F5614000F00F0080F80033135430BDD7
:1011840000ED00E014ED00E0002807DB0123410935
:10119400034A00F01F00834042F82130704700BF2B
:1011A40000E100E00138B0F1807F0BD24FF0E02382
:1011B400F021054A586182F8231000200722986123
:1011C4001A6170470120704700ED00E00122014BD5
:1011D4001A62704700000E42114AD36813F01003DC
:1011E40005D01049CB6943F00203CB611023D268C8
:1011F400500706D50B4943F00403CA6942F00102C3
:10120400CA61074AD169C90708D50648C16941F0CE
:101214000401C161D16921F00101D161D36070473A
:10122400002002403000002070B50546FFF712FA96
:101234000646114CE368D80712D4E368990644BF04
:101244002023E360E368DA0606D4E369DB0703D40A
:10125400E06810F0040007D0FFF7BEFF012003E0B0
:101264006B1CE7D00DB9032070BDFFF7F3F9801BA9
:10127400A842DFD9F7E700BF002002402DE9F84F6C
:10128400DFF894A01F469AF818300546012B8846CB
:1012940091463FD001234CF250308AF81830FFF7C2
:1012A400C3FF90BB012D03D0022D14BF04250225DA
:1012B40000263346DFF864B03401C4F12001A4F100
:1012C400200207FA01F129FA04F4CAF81C300C438D
:1012D40027FA02F21443DBF81020A4B242F0010210
:1012E400CBF810204CF2503028F81640FFF79CFF42
:1012F400DBF8102022F00102CBF8102028B90136C7
:10130400F2B295424FF00003D6D800238AF8183081
:10131400BDE8F88F0220FBE73000002000200240E7
:101324000022064BDA61064B1A6942F002021A6186
:1013340058611A6942F040021A6170473000002077
:10134400002002402DE9F041264F05463B7E8846A9
:10135400012B44D001243C7603684CF25030022B1C
:101364001AD1FFF761FF20B1012000233B76BDE8CD
:10137400F0811D4CF86123694CF2503043F00403B2
:101384002361236943F040032361FFF74DFF236981
:1013940023F004032361E8E7FFF746FF0028E3D1C5
:1013A4004FF0FF33C8F800302046AE680E4CD5E944
:1013B400023203EBC223B342D7D93046FFF7B0FF62
:1013C4004CF25030FFF730FF236923F0020323610E
:1013D40010B1C8F80060C8E706F50066E7E7022028
:1013E400C5E700BF3000002000200240026802F17F
:1013F4000C0353E8003F23F490730C3242E80031AD
:1014040002680029F2D102F1140353E8003F23F0EB
:10141400010302F1140C4CE800310029F3D1036BF1
:10142400012B0BD102F10C0353E8003F23F010030E
:1014340002F10C0C4CE800310029F3D1202380F890
:10144400423000230363704710B504460368C16843
:101454001A6922F440520A431A6182680069D96801
:101464000243606921F4B05121F00C0102430A43A4
:10147400DA605A69A16922F440720A435A610E4A39
:10148400934215D1FFF7D8FB1923434362682068C0
:101494009200B3FBF2F36422B3FBF2F102FB1133CB
:1014A4001B013233B3FBF2F303EB0113836010BD72
:1014B400FFF7B2FBE8E700BF00380140F7B5054687
:1014C4000C4617461E462A68136834EA030301D102
:1014D400002021E0701CF7D0FFF7BCF8C01B864247
:1014E4001CD3DEB12B68DA685107ECD5802CEAD026
:1014F400402CE8D01A681207E5D5002401941A6834
:10150400284601925B680193019BFFF76FFF082354
:1015140001206B6485F8404003B0F0BD0320FBE775
:1015240010B5044648B390F8413003F0FF021BB9EC
:1015340080F8402000F066FB2423226884F84130C0
:10154400D368204623F40053D360FFF77DFF23685C
:1015540000201A6922F490421A615A6922F02A0280
:101564005A61DA6842F40052DA602023606484F835
:10157400413084F84230606310BD0120FCE72DE95E
:10158400F843984690F841300446202B0E461746FF
:101594003FD100293FD0002A3DD0212300254564B6
:1015A40080F84130FFF756F8A3688146B3F5805FB1
:1015B400A784E78403D123690BB935461E46E38C1F
:1015C4009BB253B943464A4640212046FFF776FF73
:1015D400202350B984F841300AE043464A4680212A
:1015E4002046FFF76BFF28B12023032084F8413005
:1015F400BDE8F88322684EB935F8023BC3F308030B
:101604005360E18C013989B2E184D8E716F8013BD3
:10161400F6E70220ECE70120EAE77047704708B5D7
:101624000023406AC385C384FFF7F8FF08BD7047F1
:1016340090F8423007B5222B42D181680268B1F597
:10164400805F836A3ED1016900293ED15268C2F3AA
:10165400080223F8022B8362C38D013B9BB2C3852E
:10166400002B2DD10268D16821F02001D160D1680E
:1016740021F48071D160516921F00101516120226E
:1016840080F842204363026B012A026827D1036376
:1016940002F10C0353E8003F23F0100302F10C0C99
:1016A4004CE800310029F3D11368DB0605D501911C
:1016B4001368019353680193019B818DFFF7B7FF72
:1016C40003B000BD39B9016929B95268D2B21A70A0
:1016D400836A0133BFE7526802F07F02F7E700F044
:1016E400D9F9EDE7036873B51A6804461607D96893
:1016F4005D6908D1960668D58D0666D502B0BDE849
:101704007040FFF795BF05F0010001F490750543A3
:101714005BD0D60705D5CD0542BF636C43F001030A
:101724006364530704D518B1636C43F00203636424
:10173400960704D518B1636C43F00403636415077A
:1017440007D501F0200303431EBF636C43F0080375
:101754006364636C002B32D0920604D58B0602D5E9
:101764002046FFF765FF266820467369626C03F024
:10177400400302F0080253EA020522D0FFF736FEC6
:1017840073695E0618D5226802F1140353E8003F1A
:1017940023F04003143242E800310029F3D1E06B16
:1017A40050B1744B4363FFF741FC40B1E06B436BB2
:1017B40002B0BDE8704018472046FFF72FFF02B083
:1017C40070BDFFF72BFF6564F9E7206B012840F03B
:1017D4009480D50640F19180C80640F18E800022A5
:1017E40001921A6801925A680192019A5A69520642
:1017F4004DD5E16B0A68526892B2002ADFD0A08D01
:101804009042DCD9E2858A69202A36D003F10C02A1
:1018140052E8002F22F4807203F10C0040E800210A
:101824000029F3D103F1140252E8002F22F001023F
:1018340003F1140040E800210029F3D103F114025C
:1018440052E8002F22F0400203F1140040E8002186
:101854000029F3D1202284F84220216303F10C02F1
:1018640052E8002F22F0100203F10C0040E800219E
:101874000029F3D1E06BFFF7BAFB02236363E38D26
:10188400A18DC91A89B22046FFF7D1FE97E7E28DF0
:10189400E18D92B289B2002991D0A18D891A89B2C1
:1018A40000298CD003F10C0252E8002F22F490722C
:1018B40003F10C0545E800200028F3D103F11402DC
:1018C40052E8002F22F0010203F1140545E800203C
:1018D4000028F3D1202284F84220206303F10C0273
:1018E40052E8002F22F0100203F10C0545E8002015
:1018F4000028F3D102236363C5E7160628D50D0635
:1019040026D594F84120212A7FF459AFA168226A90
:10191400B1F5805F17D12169A9B932F8021BC1F36F
:10192400080159602262E28C013A92B2E284002AF0
:101934007FF445AFDA6822F08002DA60DA6842F0B8
:101944004002DA603BE7511C216212785A60EAE7F0
:1019540050067FF534AF4A067FF531AFDA6820468A
:1019640022F04002DA60202384F84130FFF755FE6C
:1019740025E700BF231600080023C2854364222301
:101984008285026980F84230816203681AB1DA689C
:1019940042F48072DA605A69002042F001025A610E
:1019A400DA6842F02002DA60704770B590F842605D
:1019B400202E07D141B13AB100240463FFF7DCFFC4
:1019C400204670BD0220FCE70120FAE730B597B04D
:1019D400102200210EA800F016FD1422002101A8F7
:1019E40000F011FD182200210DEB020000F00BFDA8
:1019F40002254FF4803309220124CDE90C23CDE9DB
:101A040013534FF4E0130CA8109412941593FEF79B
:101A1400A5FE08B172B6FEE70F23CDE901354FF4F8
:101A240080630390CDE90430294601A8FFF758F8F4
:101A340008B172B6FEE74FF4007306A80694079344
:101A4400FFF70AF908B172B6FEE717B030BD00001F
:101A540008B5FEF7E1FDFFF7B9FF00F027F800F045
:101A6400B5F800F061F800F007FA00F0ABFB00F005
:101A740045FBBFF34F8F0549054BCA6802F4E0628A
:101A84001343CB60BFF34F8F00BFFDE700ED00E0D1
:101A94000400FA050268034B9A4201D100F014BA1B
:101AA400704700BF0048004072B6FEE7102200B540
:101AB40089B00DEB0200002100F0A5FC184B4FF497
:101AC40000419A69174842F040029A619A6902F00B
:101AD40040020192019A9A6942F008029A619A6955
:101AE40002F008020292029A9A6942F004029A6190
:101AF4009B69002203F004030393039BFFF772FA2C
:101B04004FF4004201230021CDE9042303230548B7
:101B1400CDE9061304A9FFF785F909B000BD00BF9C
:101B24000010024000180140164A174B13B5002458
:101B34004FF0FF3113604FF480731046C2E9011374
:101B4400ADF800408DF802400194FEF7D9FC08B1CD
:101B5400FFF7AAFF012269460A48ADF800408DF854
:101B64000240FEF707FC08B1FFF79EFF074B012276
:101B7400044801A90193FEF74FFC08B1FFF794FF55
:101B840002B010BD500000200028004001010100F7
:101B940007B50B4B02689A420FD1FFF717FB094BAD
:101BA400DA6942F00062DA610122DB6903F0006362
:101BB4000193019B044BC3F83C2403B000BD00BF58
:101BC40000280040001002400000424208B50B49C2
:101BD4000B4B4FF416520B600023C1E901230C2276
:101BE4000846C1E90333C1E90523CB61FFF798FC3B
:101BF40018B1BDE80840FFF757BF08BD64000020D6
:101C04000048004030B5044687B01022002102A8E5
:101C140000F0F9FB22681B4B9A4230D103F5E43300
:101C2400DA69032542F48022DA61DA69164802F49B
:101C340080220092009A9A6902A942F008029A61ED
:101C44009B694FF4806203F008030193019B022314
:101C54000024CDE902230595FFF7E4F84FF400636F
:101C6400094802A9CDE902340494FFF7DBF82720E0
:101C740022462946FFF758FA2720FFF785FA07B0CE
:101C840030BD00BF00480040000C0140FEE7FEE705
:101C9400FEE7FEE7FEE770477047704708B5FEF7BA
:101CA400CDFC0122014B1A7008BD00BFAC0000201E
:101CB4000148FFF717BD00BF640000200E4B82B03F
:101CC4009A6942F001029A619A6902F00102009253
:101CD400009ADA6942F08052DA61DB69074A03F05C
:101CE40080530193019B536823F0E06343F0007336
:101CF400536002B0704700BF001002400000014072
:101D0400FEF78EFA0B480C490C4A002302E0D45823
:101D1400C4500433C4188C42F9D3094A094C002333
:101D240001E013600432A242FBD300F075FBFFF71D
:101D34008FFE7047000000200C000020DC24000807
:101D44000C000020D0040020FEE7000070B504461B
:101D54000D460C4E01224FF400410B48FFF742F9A7
:101D64002A46642321463046FFF709FC326813688B
:101D74005B06FCD5BDE8704000224FF400410248E8
:101D8400FFF730B96400002000180140C12307B5F3
:101D940002218DF8050001A88DF80430FFF7D6FF65
:101DA4000422024B1A7003B000BD00BFCC04002013
:101DB4002DE9F043092904460E4685B005D00320D9
:101DC40005B0BDE8F043FFF7E1BF0378412B2FD105
:101DD40090F80180B8F1010F2AD190F80290B9F17E
:101DE400060F25D1C07800F15103DBB2062B1FD8B2
:101DF40063681BBA5A1EB2F5801F19D21A4F3A787B
:101E040012F0FB0216D1217A184DE02928BFE021F7
:101E140028706B601648AA6003F2FF73154A297490
:101E2400D90A6861EA6000F01DFA28B90820C7E7FA
:101E34000120C5E70520C3E740F24113ADF80430A3
:101E4400E3788DF806908DF8073063683146029385
:101E54002B7C01A88DF80C30FFF778FF87F8008001
:101E640005B0BDE8F08300BFCC040020B40400201A
:101E7400008000080000FFFF10B500240C4B214631
:101E84001C700C4B18220C481C8000F0BCFA214634
:101E94004FF40072094800F0B6FAFEF7DBFB0122AA
:101EA40007490848FFF781FDBDE81040FEF7D2BBA3
:101EB400CC040020B2020020B4040020B4020020AC
:101EC400B1020020640000200268164B70B59A42EB
:101ED40026D1154D2B7803F0FF060BBB134C144889
:101EE40022881449531C9BB20078022B2380885407
:101EF4000FD98A78033293420BD30F4A0F481380C9
:101F0400128892B200F0ACFA01230D4A26801370B5
:101F14002B700122BDE8704005490A48FFF745BD12
:101F240070BD00BF00480040AD000020B202002098
:101F3400B1020020B4020020AE000020B100002055
:101F4400B0000020640000202DE9F3470378044624
:101F5400412B0D4640F0C98047787B1E032B00F2CD
:101F6400C280DFE803F002075C8702B0BDE8F047F7
:101F7400FFF71EBF062901D8032025E0DFF8709182
:101F840099F80030013B012B01D905201CE0594D83
:101F9400C2782B789A42EFD190F802802B7CA8F17A
:101FA40004081FFA88F6B342E6D3A8686B6882195E
:101FB4009A42E1D86B6904F1070A32465146184443
:101FC40000F07CF928B9062002B0BDE8F047FFF71D
:101FD400DDBE32465146E88900F0FEF9AB68E8817F
:101FE4003344AB6040F24123ADF8003004238DF854
:101FF4000230E37807218DF80330A3886846ADF8F2
:1020040004308DF80680FFF7A1FED5E901329A422B
:1020140028BF032789F8007002B0BDE8F0870629BD
:10202400AAD1334F3B78032BAFD18678032E5CD1F2
:10203400304BC2781878904257D1D3E901219142AC
:102044009AD1A288DC8951BA89B2A14201D0072071
:10205400BAE79A8140F241338DF803002946684675
:10206400ADF800308DF80260ADF80420FFF76EFE85
:102074003E70D1E70429CFD11E4EC27833789A42FC
:10208400CAD11B4B1C78032CC6D1706900F064F9CB
:102094000028C1D0FFF79AF8002201211648FEF764
:1020A40075FA002202211448FEF770FA2146002234
:1020B4001148FEF76BFA294600220F48FEF766FA2C
:1020C400002205210C48FEF761FA002206210A4885
:1020D400FEF75CFA0A20FEF7C3FA706902B0BDE8A5
:1020E400F04700F053B902206EE701206CE700BF0F
:1020F400CC040020B4040020500000202DE9F0415D
:10210400FEF7A8FA0023254D254F00F2DC542E8853
:102114009E4203D0FEF79EFA00F2DC543B783BB3B8
:1021240000233B701F4B1B889BB2022B13D9DFF893
:10213400788098F802400334A3420CD321464046E9
:10214400FFF702FF2A88A24205D91848121B08EBA0
:10215400040100F085F90023154A16491370164846
:1021640001222B80FFF721FCFEF774FA00F2DC5405
:10217400124B1B7853B9FEF76DFAA04206D91048EA
:1021840000F0EAF820B10E4800F000F93346BEE74B
:10219400FEF760FA00F2DC54F8E700BFB202002058
:1021A400B0000020AE000020B1000020B4020020E6
:1021B400AD000020B102002064000020CC04002007
:1021C4000080000830B585B0FFF700F801211948F8
:1021D400FEF7E4F9022104461648FEF7DFF945F656
:1021E4005A239C4223D14AF2A55398421FD103217A
:1021F4001048FEF7D3F9042105460E48FEF7CEF940
:10220400052104460B48FEF7C9F940F24113ADF825
:102214000430062309218DF80C0001A88DF806303E
:102224008DF807500294FFF7C3FDFFF767FF05B071
:1022340030BD00BF50000020044B1A69120641BF94
:10224400034A5A6002F188325A6070470020024003
:1022540023016745024A136943F080031361704701
:102264000020024030B5B0F1006F044687B01ED3A1
:10227400104B00EBC1229A424FF0000015D8019098
:10228400FFF7DAFF0C4DEB6813F00103FBD1CDE946
:10229400044102A801A90293FFF754F83423B0FAC9
:1022A40080F0EB60FFF7D6FF400907B030BD002097
:1022B400FBE700BF0000040800200240B0F1006FFB
:1022C4002DE9F0470746164602D20020BDE8F08704
:1022D4001F4B82189A42F8D8002EF6D0C207F4D4C5
:1022E400FFF7AAFF1B4BDC6814F00104FBD1DFF8F5
:1022F40064904D1C631C9E4215F8018C8ABF2B7898
:1023040048F47F4848EA032807EB040A42460023BE
:1023140051460120FEF7B2FF28B13423C9F80C302E
:10232400FFF798FFD1E7D9F80C30DB07FBD4BAF8F4
:1023340000309BB24345F0D10234A64205F10205B8
:10234400D8D83423C9F80C30FFF784FF0120BDE747
:10235400000004080020024000F17843A3F5004384
:10236400B3F5603F10D2036803F16043B3F5404F07
:102374000AD8406800F17840A0F50040B0F5603F0D
:102384002CBF0020012070470020704770B50668FC
:102394000446456872B64FF0E02200234FF0FF3147
:1023A4001361536193619A0002F16042013302F5B3
:1023B4006142082BC2F88010C2F88011F3D1FEF7F5
:1023C40061F9FEF7F5F8034B9C6086F30888A8478B
:1023D400FEE700BF00ED00E030B50A44914200D1B1
:1023E40030BD11F8013B5840082300F0010404EB10
:1023F400840504EB4534013B84EA500013F0FF03E9
:1024040080B2F2D1EAE703460244934200D1704716
:1024140003F8011BF9E7000070B500260C4D0D4BC5
:102424005B1B9C10A64209D1002600F027F80A4D38
:102434000A4B5B1B9C10A64205D170BD55F8043BAA
:1024440098470136EEE755F8043B98470136F2E722
:10245400D4240008D4240008D4240008D824000874
:102464000A44914200F1FF3300D1704710B511F8CE
:10247400014B914203F8014FF9D110BDF8B500BFEB
:10248400F8BC08BC9E467047F8B500BFF8BC08BC51
:042494009E467047A9
:10249800000000000102030400000000000000002A
:1024A80001020304060708090102020304050607DE
:1024B80008090A0B0C0D0E0F101001020203040587
:0C24C800060708090A0B0C0D0E0F10107F
:0424D40009020008F1
:0424D800E501000812
:0C24DC0000127A00010000001000000057
:0400000508001D05CD
:00000001FF
